:020000040000FA
:06000000E9EF20F0120000
:0600080004EF04F01200F9
:060018000CEF04F01200E1
:06080000E9EF20F01200F8
:0608080022EF0DF01200CA
:060818008CEF0DF0120050
:06082A0001004C42000039
:0808300060000000350000002B
:08083800D9CFE6FFE1CFD9FFA3
:10084000E652A09A6A6A686A706A010EE66EE66A03
:10085000E66A710EE66E0F0EE66E47EC1FF01D6E37
:10086000050EE15E1D50160E6F6E9F0E6B6E7B0EB9
:10087000696EDF6ADF501D6E1E6A080E1D5C000E79
:100880001E5810E2DF50040DF3CFE9FFF4CFEAFF6A
:10089000000EE926040EEA22EE6AEE6AEE6AEE6ABD
:1008A000DF2AE8D76D8C6E6A6D986D9C68A607D0BC
:1008B00068960001A86BAD6BAE6BAF6BF7D700010C
:1008C000010EBF6FC06FC16BC26BB56BDF6A020EEA
:1008D000DF5C26E2EA6ADF34FE0BEA36E96EA00E40
:1008E000E926000EEA22EE6AED6AEA6ADF34FE0BC0
:1008F000EA36E96E9C0EE926000EEA22EE6AED6AFF
:10090000DF50EA6AB90FE96E000EEA22EF6ADF50A3
:10091000EA6ABB0FE96E000EEA22EF6ADF2AD7D738
:100920000001080EA06F040EA16F160E706E040178
:10093000200E026F040E036F080E016F840E006F0D
:100940000001966B956BE552E552E7CFD9FF120097
:10095000D9CFE6FFE1CFD9FFE652000195510FE173
:100960006D6A696A160E6F6E9F0E6B6E7B0E696EF6
:100970006DB602D06D86FCD70001010E956F95050E
:1009800008E16DBA06D0686A696A69806988020EF2
:10099000956F6850040B05E06950040B02E0689401
:1009A000C5D86DB256D06850010B08E06950010BF4
:1009B00005E042DF0001040E956F68906850100B4F
:1009C00005E06950100B02E09CD8689868AC19D01B
:1009D00069AC0FD0010EE66EE66A000EE66EE66ABE
:1009E000730EE66EE66A9EEC14F01D6E060EE15E76
:1009F0001D50689C0001BD5101E0BD07BD5101E1E2
:100A000048DB6850200B04E06950200B01E060D8FF
:100A10006850020B13E06950020B10E0010EE66E05
:100A2000E66A000EE66EE66AE6687F0EE66E9EEC0B
:100A300014F01D6E060EE15E1D506A6A040E000180
:100A4000E76E9519E8AE02D0E73402D0E750955D25
:100A500002E2A19A38D069A635D0DF6A040EDF5CC5
:100A600031E268A62FD06CCFB6F00001B651780BFA
:100A7000E842E842E842B76F6896B6B506D0B7518B
:100A8000EA6ABB0FE96E000E05D0B751EA6AB90FEA
:100A9000E96E000EEA22EF70B75102E15ED810D085
:100AA000000EE66EE66AB60EE66E000EE66E720E9A
:100AB000E66EE66A9EEC14F01D6E060EE15E1D50B9
:100AC000DF2ACCD7A19AE552E552E7CFD9FF120031
:100AD00070A015D098C0E9FF99C0EAFFEF508008D8
:100AE0000DE1A0C0E9FFA1C0EAFFEF50840806E1D4
:100AF00098C0E9FF99C0EAFF8C0EEF6E7090689A7B
:100B00001200698468986D820001010EB56F000EB5
:100B1000E66EE66AE66EE66A750EE66EE66A9EECDC
:100B200014F01D6E060EE15E1D5012000001B56B43
:100B3000000EE66EE66AE66EE66A740EE66EE66A39
:100B40009EEC14F01D6E060EE15E1D506D926994D0
:100B500068A402D06894FCD71200D9CFE6FFE1CF99
:100B6000D9FFE65200012D0EBD6FFD0EB61553E103
:100B70007E0EB615E8407F0B040DF3CF98F0F4CF4E
:100B800099F0000E9827040E992398C09AF099C006
:100B90009BF09A7598C0E9FF99C0EAFFEF503C0BB3
:100BA000E842E8420D0835E1DF6A080EDF5C23E227
:100BB00098C0E9FF99C0EAFF020EE926000EEA227A
:100BC000EE50EFCFEAFFE96EEF50E66EDF50EA6AD3
:100BD000200FE96E040EEA22E552E750EF6E98C04E
:100BE000E9FF99C0EAFF020EE926000EEA22EE2A8A
:100BF000EF22DF2ADAD798C0E9FF99C0EAFF020E98
:100C0000E926000EEA22200EEE6E040EED6E0DD8DF
:100C100007D03AD805D0FD0EB615040801E159D821
:100C2000E552E552E7CFD9FF12000001A46BBE6B7D
:100C3000C16BC26BB86BA56BA0C0E9FFA1C0EAFF96
:100C4000EF9EA075A0C0E9FFA1C0EAFFEF9EA075CE
:100C50009AC0E9FF9BC0EAFFEF9EA86BA96BAA6B45
:100C6000AD6BAE6BAF6B8CD8000EE66EE66AE66ECF
:100C7000E66A030EE66EE66A9EEC14F01D6E060E42
:100C8000E15E1D508FEF09F0020E0001A55D02E14B
:100C90004FEF0AF0A56BB8511AE19AC0E9FF9BC06B
:100CA000EAFFEE52080EEF6E9AC0E9FF9BC0EAFF22
:100CB000020EE926000EEA22200EEE6E040EED6E04
:100CC0009AC0E9FF9BC0EAFF8C0EEF6E1200B86B72
:100CD0001200D9CFE6FFE1CFD9FFE652A0C0E9FF6D
:100CE000A1C0EAFFEF50400B01E0010EDF6E0001F2
:100CF000A075080E955D08E122C46EFF6E5002E0FB
:100D0000100E01D0040E956FA50526E1A0C0E9FFE5
:100D1000A1C0EAFF020EE926000EEA22280EEE6EBE
:100D2000040EED6E5DDB020E0001A45D06E1A0C0C5
:100D3000E9FFA1C0EAFF840E0DD0DF5006E1A0C09C
:100D4000E9FFA1C0EAFFC80E05D0A0C0E9FFA1C01D
:100D5000EAFF880EEF6E0FD0ADAF0CD0B051B111DD
:100D600007E005D0B1C0FAFF0001B051F96EFADF1B
:100D70000001AD9FA56BE552E552E7CFD9FF120008
:100D800004012051600BE842E842E842E842E842B0
:100D9000000901E0120021510C0A50E00B0A3FE06B
:100DA0000C0A31E0010A22E00B0A1EE0020A1CE0F4
:100DB000030A18E0080A10E0010A0CE00F0A08E034
:100DC000030A01E012000001A88F080E956F1200BF
:100DD000D8EF08F0EEEF0AF00001960EA66F000EB5
:100DE000A76F0CD035EF09F01FEF07F02451000179
:100DF000A66FA76B970EA627000EA723A881010E4A
:100E0000A96FA88F12000001A88F04012451EA6A7B
:100E1000970FE96E000EEA2222C4EFFF1200000EC7
:100E2000E66EE66AE66EE66A020EE66EE66A9EEC3C
:100E300014F01D6E060EE15E1D5012001200D9CF97
:100E4000E6FFE1CFD9FF030EE1260401220510E100
:100E500020511F0B00090CE10001A88F030E0401B3
:100E6000215D04E10001010EB46F02D00001B46BFA
:100E70000401225101E003D120511F0B020801E0BF
:100E8000FED024510F0B000901E1F9D024510F0BC2
:100E9000010801E2F4D0200E0001955D01E0EFD0E1
:100EA000A88F040124BF16D024510F0BE96EEA6A03
:100EB000D890E936EA369C0EE926000EEA22EECFFB
:100EC000DEFFEDCFDDFF24510F0BEA6ABB0FE96EA9
:100ED000000E15D024510F0BE96EEA6AD890E9365E
:100EE000EA36A00EE926000EEA22EECFDEFFEDCFB5
:100EF000DDFF24510F0BEA6AB90FE96E000EEA22FA
:100F0000020EEFCFDBFFD950020FE96EDACFEAFF16
:100F1000EF50010B03E1000EDF9401D0DF8424BF0A
:100F20000BD024510F0BE96EEA6AD890E936EA3605
:100F30009C0EE926000E0AD024510F0BE96EEA6AD6
:100F4000D890E936EA36A00EE926000EEA22DECF76
:100F5000EEFFDDCFEDFF030E215D20E1DECFE9FFE7
:100F6000DDCFEAFFEF50800B11E024BF07D0245102
:100F70000F0BEA6ABB0FE96E000E06D024510F0B6F
:100F8000EA6AB90FE96E000EEA22EF82840EDECF24
:100F9000E9FFDDCFEAFFE850EF1271D0DF74DECF5A
:100FA000E9FFDDCFEAFFEF50800B1BE0DECFE9FF6A
:100FB000DDCFEAFFEF9EDECFE9FFDDCFEAFFEF8C6A
:100FC000020EE66EE66ADECFE6FFDDCFE6FF050E37
:100FD000E66EE66A9EEC14F01D6E060EE15E1D5094
:100FE00005D0DECFE9FFDDCFEAFFEF8CDF74D9500B
:100FF000020FE96EDACFEAFFEF50020B0EE1DECF0F
:10100000E9FFDDCFEAFFEF50800B32E0DECFE9FFF2
:10101000DDCFEAFFEF50040B2BE1040124BF07D022
:1010200024510F0BEA6ABB0FE96E000E06D0245163
:101030000F0BEA6AB90FE96E000EEA22EF923B0E3F
:101040001D6EDECFE9FFDDCFEAFFE850EF16020E9E
:10105000E66EE66ADECFE6FFDDCFE6FF050EE66E62
:10106000E66A9EEC14F01D6E060EE15E1D5007D080
:101070003B0EDECFE9FFDDCFEAFFE850EF16030EAF
:10108000E15C02E2E16AE552E16EE552E7CFD9FFA9
:1010900012000001BF514DE1010EBF6FC05149E187
:1010A000010EC06F020EA55D0DE1A0C0E9FFA1C059
:1010B000EAFFEE52EF6AA0C0E9FFA1C0EAFFC80E46
:1010C000EF6E1200A50535E1B86B98C0E9FF99C035
:1010D000EAFFEE52080EEF6E98C0E9FF99C0EAFFF2
:1010E000020EE926000EEA22200EEE6E040EED6ED0
:1010F00098C0E9FF99C0EAFF840EEF6E010EB86F49
:101100009AC0E9FF9BC0EAFFEE52080EEF6E9AC04C
:10111000E9FF9BC0EAFF020EE926000EEA22200E3C
:10112000EE6E040EED6E9AC0E9FF9BC0EAFF800EE2
:10113000EF6E12000001C16BC26B020EA55D18E1DB
:101140009AC0E9FF9BC0EAFFEE52080EEF6E9AC00C
:10115000E9FF9BC0EAFF020EE926000EEA22280EF4
:10116000EE6E040EED6E9AC0E9FF9BC0EAFF1DD043
:10117000A9510401265D0001AA510401275904E286
:1011800026C4A9F027C4AAF02BD9A0C0E9FFA1C0AA
:10119000EAFF020EE926000EEA22280EEE6E040E89
:1011A000ED6EA0C0E9FFA1C0EAFFC80EEF6E12000D
:1011B000800E0401205D58E10001C00EA86F0401FB
:1011C0002351030A2FE0010A09E0030A4BE1000161
:1011D0007E0EA66F3C0EA76F120E3ED02251F66E09
:1011E000F76AD890F636F7363B0EF6263D0EF72214
:1011F0000900F5CFA6F00A00F5CFA7F0020E000116
:10120000F76AA625F66EA751F7220800F5CFA9F0D8
:10121000030EF76AA625F66EA751F7220800F5CF50
:10122000AAF01200030E225D1AE22251F66EF76A4E
:10123000D890F636F7363D0EF6263D0EF722090019
:10124000F5CFA6F00A00F5CFA7F0A6C0F6FFA7C01D
:10125000F7FF0800F5500001A96FAA6B120000010A
:10126000A86B12000001A86B1200D9CFE6FFE1CFF6
:10127000D9FF020EE1260401286B296B20511F0BB8
:10128000020A11E0030A0CE0010A35E10001A88F0F
:10129000040128810001B4052EE1040128832BD02C
:1012A0000001A88F28D00001A88F040124BF0BD013
:1012B00024510F0BE96EEA6AD890E936EA369C0EA3
:1012C000E926000E0AD024510F0BE96EEA6AD89085
:1012D000E936EA36A00EE926000EEA22EECFDEFF5E
:1012E000EDCFDDFFDECFE9FFDDCFEAFFEF50040BEE
:1012F00002E0010E286F0001A8AF07D0280EA66FEC
:10130000040EA76FA881020EA96F020EE15C02E233
:10131000E16AE552E16EE552E7CFD9FF12006D9820
:101320000001A8BF2BD0ADAF09D0020EA56FC251EE
:1013300001E100DF0001C06BBF6B12009AC0E9FF42
:101340009BC0EAFFEE52080EEF6E9AC0E9FF9BC009
:10135000EAFF020EE926000EEA22200EEE6E040ECF
:10136000ED6E9AC0E9FF9BC0EAFF8C0EEF6EA0C045
:10137000E9FFA1C0EAFF840EEF6E1200040120AF66
:101380000DD00001010EA56FC15101E1D3DE0001B6
:10139000C06BBF6BBE5123E149EF08F00001020EA4
:1013A000A56F9AC0E9FF9BC0EAFFEE52080EEF6EF0
:1013B0009AC0E9FF9BC0EAFF020EE926000EEA226E
:1013C000200EEE6E040EED6E9AC0E9FF9BC0EAFFA0
:1013D000840EEF6EC06BBF6BBE5101E15ADE12008E
:1013E000D9CFE6FFE1CFD9FFE652080EDF6E00014C
:1013F000A95D000EAA590AE2A9C0DFFFA45102E1CB
:10140000010E03D0A40502E1020EA46FDF501E6A94
:10141000E850A95DA96F1E50AA59AA6FA0C0E9FFA4
:10142000A1C0EAFFEE52DFCFEFFF280EB26F040E2D
:10143000B36FA8B118D0DF502DE0A6C0F6FFA7C04B
:10144000F7FFA62B000EA7230800F550E66EB2C0EA
:10145000E9FFB3C0EAFFB22B000EB323E552E75019
:10146000EF6EDF06E8D7DF5015E0A6C0E9FFA7C0A2
:10147000EAFFA62B000EA723EF50E66EB2C0E9FFED
:10148000B3C0EAFFB22B000EB323E552E750EF6E74
:10149000DF06E9D7E552E552E7CFD9FF1200D9CFF1
:1014A000E6FFE1CFD9FF020EE12698C0E9FF99C01F
:1014B000EAFFEE52EFCFDFFFDFCF1DF01D5000013E
:1014C000AE5D000EAF5902E2AEC0DFFFDF501D6E11
:1014D0001E6AE850AE5DAE6F1E50AF59AF6F010E81
:1014E000DB6ADF50F36E010EDBCFF4FFF350F45CE8
:1014F00016E2010EDB50EA6A280FE96E040EEA22BA
:10150000EF50E66EABC0E9FFACC0EAFFAB2B000EBC
:10151000AC23E552E750EF6E010EDB2AE2D7000E56
:10152000D880AE55000EAF5527E29AC0E9FF9BC0A8
:10153000EAFFEE52080EEF6E9AC0E9FF9BC0EAFF89
:10154000020EE926000EEA22280EEE6E040EED6E63
:1015500098C0E9FF99C0EAFFEF50400B06E19AC03E
:10156000E9FF9BC0EAFFC80E05D09AC0E9FF9BC007
:10157000EAFF880EEF6E28D09AC0E9FF9BC0EAFF11
:10158000EE52080EEF6E9AC0E9FF9BC0EAFF020E12
:10159000E926000EEA22200EEE6E040EED6E9AC0D1
:1015A000E9FF9BC0EAFF840EEF6EB051B11107E076
:1015B00005D0B1C0FAFF0001B051F96EFADF0001A9
:1015C000AD9FBE5101E165DD020EE15C02E2E16A20
:1015D000E552E16EE552E7CFD9FF1200D9CFE6FF21
:1015E000E1CFD9FFE6520001A88F010EE66EE66A50
:1015F000E66A710EE66E0F0EE66E47EC1FF01D6E8A
:10160000050EE15E1D50DF6ADF501D6E1E6A080E7A
:101610001D5C000E1E5810E2DF50040DF3CFE9FFF1
:10162000F4CFEAFF000EE926040EEA22EE6AEE6A23
:10163000EE6AEE6ADF2AE8D76D8C010EE66EE66A86
:10164000E66A970EE66E000EE66E47EC1FF01D6E22
:10165000050EE15E1D506D9C0001080EA06F040E8A
:10166000A16F000E986F040E996F98C09AF09B6F4F
:1016700022C496F0965102E1100E12D0010EE66ED1
:10168000E66A960EE66E000EE66E010EE66EE66AFD
:101690009EEC14F01D6E060EE15E1D500001200E42
:1016A000956FE552E552E7CFD9FF1200D9CFE6FF9B
:1016B000E1CFD9FF020EE126000EDE6E040EDD6ED4
:1016C000FD0EDB50E8241F6EFE0EDB50040DF350C0
:1016D0001F24040DF4CF1EF0D9CFE9FFDACFEAFFC3
:1016E000F350EE261E50ED22DECFE9FFDDCFEAFFFC
:1016F000EF9EFD0EDB500AE1FE0EEA6ADB34FE0BC4
:10170000EA36E96E9C0EE926000E09D0FE0EEA6A62
:10171000DB34FE0BEA36E96EA00EE926000EEA2263
:10172000DECFEEFFDDCFEDFFDECFE9FFDDCFEAFF5D
:10173000EF9CDECFE9FFDDCFEAFF040EE926000EC5
:10174000EA22EF8C020EE15C02E2E16AE552E16E10
:10175000E552E7CFD9FF1200D9CFE6FFE1CFD9FF9D
:10176000020EE126FD0EDBA407D0E66AFE0EDBCFFB
:10177000E6FF9CDFE552E552FD0EDBA208D0010E2C
:10178000E66EFE0EDBCFE6FF91DFE552E552FE0E80
:10179000DB501E6A700F1D6E0F0E1E221DC0DEFF75
:1017A0001EC0DDFFDECFE9FFDDCFEAFFFD0EDBCFA0
:1017B000EFFF020EE15C02E2E16AE552E16EE55202
:1017C000E7CFD9FF1200D9CFE6FFE1CFD9FF020E54
:1017D000E126FE0EDB5020E19AC0E9FF9BC0EAFF44
:1017E000EE52080EEF6E9AC0E9FF9BC0EAFF020EB0
:1017F000E926000EEA22200EEE6E040EED6E9AC06F
:10180000E9FF9BC0EAFF8C0EEF6EA0C0E9FFA1C00C
:10181000EAFF840EEF6E3BD0FD0EDB50E8241F6E16
:10182000FE0EDB50040DF3501F24040DF3CF1DF00A
:10183000F4CF1EF0000E1D26040E1E221DC0DEFF7A
:101840001EC0DDFF840EDECFE9FFDDCFEAFFE850EA
:10185000EF12FD0EDB50E8241F6EFE0EDB50040D70
:10186000F3501F24010F040DF3CF1DF0F4CF1EF031
:10187000000E1D26040E1E221DC0DEFF1EC0DDFF51
:10188000840EDECFE9FFDDCFEAFFE850EF12020E53
:10189000E15C02E2E16AE552E16EE552E7CFD9FF91
:1018A0001200D9CFE6FFE1CFD9FF020EE126FD0EEF
:1018B000DB500AE0FE0EEA6ADB34FE0BEA36E96E24
:1018C000A00EE926000E09D0FE0EEA6ADB34FE0BFC
:1018D000EA36E96E9C0EE926000EEA22EECFDEFF24
:1018E000EDCFDDFFD9CFE9FFDACFEAFFEE50ED1003
:1018F00003E1F36AF46A44D0DECFE9FFDDCFEAFF0B
:10190000020EE926000EEA22FB0EDBCFEEFFFC0EF4
:10191000DBCFEDFFDECFE9FFDDCFEAFFEE52FA0EBF
:10192000DBCFEFFF400EDECFE9FFDDCFEAFFE8506F
:10193000EF16880EDECFE9FFDDCFEAFFE850EF12A9
:10194000FD0EDB500AE0FE0EEA6ADB34FE0BEA36DF
:10195000E96EA00EE926000E09D0FE0EEA6ADB341D
:10196000FE0BEA36E96E9C0EE926000EEA22EF74C1
:10197000DECF1DF0DDCF1EF01DC0F3FF1EC0F4FF53
:10198000020EE15C02E2E16AE552E16EE552E7CF68
:10199000D9FF1200D9CFE6FFE1CFD9FF6DA84ED015
:1019A000FE0EEA6ADB34FE0BEA36E96EA00EE9268B
:1019B000000EEA22EE50EFCFEAFFE96E400EEE167F
:1019C000EE6AEE6AEE6AFE0EEA6ADB34FE0BEA3677
:1019D000E96EA00EE926000EEA22EE50EFCFEAFFF4
:1019E000E96EEE7CFE0EEA6ADB34FE0BEA36E96E47
:1019F000A00EE926000EEA22EF74400E1D6EFE0EC8
:101A0000EA6ADB34FE0BEA36E96EA00EE926000E28
:101A1000EA22EE50EFCFEAFFE96E1D50EF16FE0E00
:101A2000EA6ADB34FE0BEA36E96EA00EE926000E08
:101A3000EA22EE50EFCFEAFFE96EEF7CE552E7CF06
:041A4000D9FF1200B8
:0C1A4400DACFE4FFE2CFDAFFE9CFE4FFE5
:101A5000EACFE4FFF6CFE4FFF7CFE4FFF5CFE4FFF2
:101A6000F3CFE4FFF4CFE4FFFACFE4FF00EE00F0A1
:101A7000140EE80403E3EECFE4FFFBD700EE1DF005
:101A8000070EE80403E3EECFE4FFFBD7E652F25083
:101A9000200B1EE0F250040B1BE000016435000E29
:101AA000641909E6D880B70E6155000E6255000E24
:101AB0006355000E645504E2616B626B636B646B8B
:101AC000612B000E62236323642334EC14F0F29440
:101AD000E55200EE23F0070EE80403E3E5CFEDFF47
:101AE000FBD700EE13F0140EE80403E3E5CFEDFF9F
:101AF000FBD7E5CFFAFFE5CFF4FFE5CFF3FFE5CF66
:101B0000F5FFE5CFF7FFE5CFF6FFE5CFEAFFE5CF3D
:101B1000E9FFE5CFDAFF1100D8CFE4FFE0CFE4FF23
:101B2000E46EDACFE4FFE2CFDAFFE9CFE4FFEACFF9
:101B3000E4FFF6CFE4FFF7CFE4FFF5CFE4FFF3CF08
:101B4000E4FFF4CFE4FFFACFE4FF00EE00F0140E60
:101B5000E80403E3EECFE4FFFBD700EE1DF0070E31
:101B6000E80403E3EECFE4FFFBD7E6529EA028D2C1
:101B700000017F510A0A01E10CD2030A01E1CED132
:101B8000010A01E193D10F0A01E158D1010A01E1F3
:101B90001DD1030A01E1E2D0010A01E1A7D0070A41
:101BA0006DE0010A33E0030A01E009D27D6B7E6B30
:101BB00005019E0506E1A1C5E9FFA2C5EAFFA35103
:101BC000EF12E80E176EFD0E186E196A9FC51AF017
:101BD000A0C51BF01C6A1A50175C146E1B501858D5
:101BE000156E1C501958166E14C0E6FF15C0E6FF9E
:101BF00080EC20F0E552E55200017D5105019F2562
:101C000000017D6F7E510501A021BFD105019E0518
:101C100008E1A31D146EA1C5E9FFA2C5EAFFE850C3
:101C2000EF16A40506E1A7C5E9FFA8C5EAFFA9517B
:101C3000EF12E80E176EFD0E186E196AA5C51AF0A0
:101C4000A6C51BF01C6A1A50175C146E1B5018585E
:101C5000156E1C501958166E14C0E6FF15C0E6FF2D
:101C600080EC20F0E552E55200017D510501A525EB
:101C700000017D6F7E510501A62187D10501A405D4
:101C800008E1A91D146EA7C5E9FFA8C5EAFFE85041
:101C9000EF16AA0506E1ADC5E9FFAEC5EAFFAF51F3
:101CA000EF12E80E176EFD0E186E196AABC51AF02A
:101CB000ACC51BF01C6A1A50175C146E1B501858E8
:101CC000156E1C501958166E14C0E6FF15C0E6FFBD
:101CD00080EC20F0E552E55200017D510501AB2575
:101CE00000017D6F7E510501AC214FD10501AA0590
:101CF00008E1AF1D146EADC5E9FFAEC5EAFFE850BF
:101D0000EF16B00506E1B3C5E9FFB4C5EAFFB5516A
:101D1000EF12E80E176EFD0E186E196AB1C51AF0B3
:101D2000B2C51BF01C6A1A50175C146E1B50185871
:101D3000156E1C501958166E14C0E6FF15C0E6FF4C
:101D400080EC20F0E552E55200017D510501B125FE
:101D500000017D6F7E510501B22117D10501B0054B
:101D600008E1B51D146EB3C5E9FFB4C5EAFFE8503C
:101D7000EF16B60506E1B9C5E9FFBAC5EAFFBB51E2
:101D8000EF12E80E176EFD0E186E196AB7C51AF03D
:101D9000B8C51BF01C6A1A50175C146E1B501858FB
:101DA000156E1C501958166E14C0E6FF15C0E6FFDC
:101DB00080EC20F0E552E55200017D510501B72588
:101DC00000017D6F7E510501B821DFD00501B60508
:101DD00008E1BB1D146EB9C5E9FFBAC5EAFFE850BA
:101DE000EF16BC0506E1BFC5E9FFC0C5EAFFC1515A
:101DF000EF12E80E176EFD0E186E196ABDC51AF0C7
:101E0000BEC51BF01C6A1A50175C146E1B50185884
:101E1000156E1C501958166E14C0E6FF15C0E6FF6B
:101E200080EC20F0E552E55200017D510501BD2511
:101E300000017D6F7E510501BE21A7D00501BC05C3
:101E400008E1C11D146EBFC5E9FFC0C5EAFFE85037
:101E5000EF16C20506E1C5C5E9FFC6C5EAFFC751D1
:101E6000EF12E80E176EFD0E186E196AC3C51AF050
:101E7000C4C51BF01C6A1A50175C146E1B5018580E
:101E8000156E1C501958166E14C0E6FF15C0E6FFFB
:101E900080EC20F0E552E55200017D510501C3259B
:101EA00000017D6F7E510501C4216FD00501C2057F
:101EB00008E1C71D146EC5C5E9FFC6C5EAFFE850B5
:101EC000EF16C80506E1CBC5E9FFCCC5EAFFCD5149
:101ED000EF12E80E176EFD0E186E196AC9C51AF0DA
:101EE000CAC51BF01C6A1A50175C146E1B50185898
:101EF000156E1C501958166E14C0E6FF15C0E6FF8B
:101F000080EC20F0E552E55200017D510501C92524
:101F100000017D6F7E510501CA2137D00501C8053A
:101F200008E1CD1D146ECBC5E9FFCCC5EAFFE85032
:101F3000EF16CE0506E1D1C5E9FFD2C5EAFFD351C0
:101F4000EF12E80E176EFD0E186E196ACFC51AF063
:101F5000D0C51BF01C6A1A50175C146E1B50185821
:101F6000156E1C501958166E14C0E6FF15C0E6FF1A
:101F700080EC20F0E552E55200017D510501CF25AE
:101F800000017D6F7E510501D02100017E6F7F2B06
:101F900016D00501CE0508E1D31D146ED1C5E9FFA9
:101FA000D2C5EAFFE850EF167DC0E6FF7EC0E6FF2F
:101FB00080EC20F0E552E5520001010E7F6F9E900B
:101FC000E55200EE23F0070EE80403E3E5CFEDFF52
:101FD000FBD700EE13F0140EE80403E3E5CFEDFFAA
:101FE000FBD7E5CFFAFFE5CFF4FFE5CFF3FFE5CF71
:101FF000F5FFE5CFF7FFE5CFF6FFE5CFEAFFE5CF49
:10200000E9FFE5CFDAFFE550E5CFE0FFE5CFD8FF08
:10201000100008D870EC1CF0A8EC04F05ED805ECB9
:1020200015F0FAD70F0EC11202D81CEF04F0880E7B
:10203000D56EF28A9668E00E8A169316938C938E6C
:1020400000018E6B8F6B906B916BC294C296C2989D
:10205000C29AC280050113693C0EC06EC08E000199
:10206000926BE7EC1CF00501146B156B100E15AFAD
:1020700002D0D89003D0145D000E15590BE2000E6B
:102080001425E96E050E1521EA6EEF6A142B000E79
:102090001523ECD7200E1D6E420E1E6E1F6A1DC04A
:1020A000E6FFE66E1FC0E6FF000EE66E050EE66E6A
:1020B000A2EC1EF0206E050EE15E2050ED0EE66EE5
:1020C0005FEC20F0E552CD969D80CD929F909D8053
:1020D000D08EF28CCD80E8EF14F0200E0001E76E78
:1020E0009519E8AE02D0E73402D0E750955D01E2E1
:1020F0009AD36D50020B01E0120000018E518F1136
:1021000002E1000E08D08EC0E9FF8FC0EAFFEF5059
:10211000800B01E0010E000901E085D305011A5191
:102120004E0A01E133D3030A01E111D3010A01E1AF
:1021300003D3070A01E1B3D2770A01E146D2070AC5
:1021400001E14ED1710A01E1E9D0770A01E1DDD068
:10215000070A01E1ABD0030A01E179D0010A54E09A
:102160000F0A33E0B60A17E0010A01E049D38A50AA
:10217000080B01E0010E1D6E8A50100B01E0010EEC
:102180001D5C03E18A768A783BD38AA602D08A88CE
:1021900037D38A9835D3810E5A6F81AE03D0010EA2
:1021A0005B6F01D05B6B00019051911102E1000E59
:1021B00008D090C0E9FF91C0EAFFEF50800B01E02A
:1021C000010E000901E01CD308D30001926B90516D
:1021D000911102E1000E08D090C0E9FF91C0EAFF22
:1021E000EF50800B01E0010E000901E009D3968455
:1021F000C284C286C288C29A17DBF3CF10F5F4CF2F
:1022000011F50501390E1DD000019051911102E127
:10221000000E08D090C0E9FF91C0EAFFEF50800B9C
:1022200001E0010E000901E0EBD205011B51040D94
:10223000F328C26EF9DAF3CF10F5F4CF11F50501EA
:10224000380E5A6FF3CF5BF5F4CF5CF5C6D21B5155
:10225000450A24E0010A1BE0070A12E0010A09E02E
:10226000030A22E11D5102E01CC592FF92CF5BF5EB
:102270001BD01D5102E01CC593FF93CF5BF514D01A
:102280001D5102E01CC594FF94CF5BF50DD01D518C
:1022900002E01CC595FF95CF5BF506D01D5102E00D
:1022A0001CC596FF96CF5BF5390E4FD21B51450AE0
:1022B00024E0010A1BE0070A12E0010A09E0030A10
:1022C00022E11D5102E01CC580FF80CF5BF51BD0D1
:1022D0001D5102E01CC581FF81CF5BF514D01D515B
:1022E00002E01CC582FF82CF5BF50DD01D5102E0DC
:1022F0001CC583FF83CF5BF506D01D5102E01CC5D2
:1023000084FF84CF5BF53A0E20D21C5102E01BC53E
:10231000C1FF3D0E5A6FC1CF5BF55FD21B51186FE5
:10232000196B166B176B100E17AF02D0D89003D035
:10233000165D000E17590BE2000E1625E96E050E0C
:102340001721EA6EEF6A162B000E1723ECD7020E48
:10235000166F176B050E17AF02D0D89003D0165D1D
:10236000000E175912E21A0E1625E96E050E1721F6
:10237000EA6EEF50E66E6EEC1DF0E552C8EC1DF013
:102380000501162B000E1723E5D7166B176B175197
:102390001919E8AE02D0193504D01851165D19513B
:1023A000175919E2050EEA6A1625E96E1751EA2255
:1023B0001A0EE926050EEA22EF50E66E000E1625EB
:1023C000E96E050E1721EA6EE552E750EF6E162B07
:1023D000000E1723DCD74A0E5A6F18C55BF5FDD1E6
:1023E0001BC57FF000017F51090A01E1D4D0010A29
:1023F00001E1B9D00F0A01E19ED0010A01E183D0C9
:10240000030A69E0010A4FE0070A35E0010A1BE010
:10241000030A01E0D7D005011C51E96EEA6AD890A1
:10242000E936EA36690EE926000EEA22EECFA1F57A
:10243000EDCFA2F51D51EA6A820FE96E000EEA2285
:10244000EFCFA3F5BFD005011C51E96EEA6AD89021
:10245000E936EA36690EE926000EEA22EECFA7F544
:10246000EDCFA8F51D51EA6A820FE96E000EEA224F
:10247000EFCFA9F5A7D005011C51E96EEA6AD89003
:10248000E936EA36690EE926000EEA22EECFADF50E
:10249000EDCFAEF51D51EA6A820FE96E000EEA2219
:1024A000EFCFAFF58FD005011C51E96EEA6AD890E5
:1024B000E936EA36690EE926000EEA22EECFB3F5D8
:1024C000EDCFB4F51D51EA6A820FE96E000EEA22E3
:1024D000EFCFB5F577D005011C51E96EEA6AD890C7
:1024E000E936EA36690EE926000EEA22EECFB9F5A2
:1024F000EDCFBAF51D51EA6A820FE96E000EEA22AD
:10250000EFCFBBF55FD005011C51E96EEA6AD890A8
:10251000E936EA36690EE926000EEA22EECFBFF56B
:10252000EDCFC0F51D51EA6A820FE96E000EEA2276
:10253000EFCFC1F547D005011C51E96EEA6AD8908A
:10254000E936EA36690EE926000EEA22EECFC5F535
:10255000EDCFC6F51D51EA6A820FE96E000EEA2240
:10256000EFCFC7F52FD005011C51E96EEA6AD8906C
:10257000E936EA36690EE926000EEA22EECFCBF5FF
:10258000EDCFCCF51D51EA6A820FE96E000EEA220A
:10259000EFCFCDF517D005011C51E96EEA6AD8904E
:1025A000E936EA36690EE926000EEA22EECFD1F5C9
:1025B000EDCFD2F51D51EA6A820FE96E000EEA22D4
:1025C000EFCFD3F505013B0E62D01BC57FF01E5146
:1025D00000011EC51EF01D6A05011D5100011D24CC
:1025E000806F000E1E20816F7F51090A48E0010AAA
:1025F0003FE00F0A36E0010A2DE0030A24E0010A59
:102600001BE0070A12E0010A09E0030A3EE11CC5CB
:102610009EF580C09FF581C0A0F537D01CC5A4F5FC
:1026200080C0A5F581C0A6F530D01CC5AAF580C034
:10263000ABF581C0ACF529D01CC5B0F580C0B1F5B3
:1026400081C0B2F522D01CC5B6F580C0B7F581C0F7
:10265000B8F51BD01CC5BCF580C0BDF581C0BEF56A
:1026600014D01CC5C2F580C0C3F581C0C4F50DD01F
:102670001CC5C8F580C0C9F581C0CAF506D01CC507
:10268000CEF580C0CFF581C0D0F505013C0E5A6F64
:102690001BC55BF51CC55CF51DC55DF59ED01D51C8
:1026A0001DC51EF01D6A1C511D249A6F000E1E20B0
:1026B0009B6F1B510CE1086809689AC50DF09BC51A
:1026C0000EF00EEC20F006C09AF507C09BF59AC5F7
:1026D000E6FF9BC5E6FFD6EC1BF0E552E55205018F
:1026E000205120C51EF01D6A1F511D249C6F000E35
:1026F0001E209D6F1E510CE1086809689CC50DF0F5
:102700009DC50EF00EEC20F006C09CF507C09DF5AF
:102710009CC5E6FF9DC5E6FF23EC1CF0E552E552A3
:1027200005014B0E5A6F1DC55BF51CC55CF520C538
:102730005DF51FC55EF551D01B0503E1ADEC1BF047
:1027400002D070EC1CF005014C0E5A6F46D01D51A2
:102750001DC51EF01D6A1C511D249A6F000E1E20FF
:102760009B6F1B510CE1086809689AC50DF09BC569
:102770000EF00EEC20F006C09AF507C09BF59AC546
:10278000E6FF9BC5E6FFD6EC1BF01ED01D511DC514
:102790001EF01D6A1C511D249C6F000E1E209D6F93
:1027A0001B510CE1086809689CC50DF09DC50EF031
:1027B0000EEC20F006C09CF507C09DF59CC5E6FF19
:1027C0009DC5E6FF23EC1CF0E552E55205014B0EDA
:1027D0005A6F1DC55BF51CC55CF5400EE66E5A0EC2
:1027E000E66E050EE66E010EE66EE66E51EC0CF03E
:1027F0001D6E050EE15E1D50F3CF90F0F4CF91F009
:10280000400EE66E1A0EE66E050EE66EE66A010EE4
:10281000E66E51EC0CF01D6E050EE15E1D50F3CF1F
:102820008EF0F4CF8FF01200D9CFE6FFE1CFD9FFC1
:10283000020EE126C282C2B2FED7C350DF6E010E85
:10284000C4CFDBFFDECF1DF0DDCF1EF01DC0F3FFD8
:102850001EC0F4FF020EE15C02E2E16AE552E16EA5
:10286000E552E7CFD9FF1200F40E0001931905E1FC
:10287000010E941902E1936B946B932B000E942339
:10288000010E931903E1945101E18A881E0E9319F8
:1028900003E1945101E18A983C0E931903E19451AC
:1028A00001E18A885A0E931903E1945101E18A9853
:1028B00012001200120012001200DBEF1DF01200D5
:1028C0001E0EE66E010EE66EACEC0BF0E552E55224
:1028D000400EE66E1A0EE66E050EE66EE66A010E14
:1028E000E66E51EC0CF01D6E050EE15E1D50F3CF4F
:1028F0008EF0F4CF8FF012000001B4051EE100014C
:10290000B5051BE1D7DF6D920001B56B0001100E1C
:10291000CF6F0E0ED06FCF07000ED05BCF51D0110E
:10292000FAE16D84080ECF6F070ED06FCF07000E4F
:10293000D05BCF51D011FAE16D941200D9CFE6FFF0
:10294000E1CFD9FFFD0EDBCF08F0FE0EDBCF09F0A3
:10295000050E081801E1095036E0E868081802E1A0
:102960007F0E09182FE0030E081801E1095028E036
:10297000020E081801E1095021E0010E081801E1DA
:1029800009501AE0740E081801E1095013E0750EA1
:10299000081801E109500CE0730E081801E1095014
:1029A00005E0720E08180FE109500DD084DF0BD03E
:1029B00080DF09D07FDF07D083DF05D080DF03D041
:1029C0007CDF01D079DF010EE552E7CFD9FF12009D
:1029D00005019E6B9F6BA06BA46BA56BA66BAA6B8E
:1029E000AB6BAC6BB06BB16BB26BB66BB76BB86B00
:1029F000BC6BBD6BBE6BC26BC36BC46BC86BC96B6E
:102A0000CA6BCE6BCF6BD06B1200F29E030E00012F
:102A10008A1901E18B5170E0020E8A1901E18B5194
:102A20004BE0010E8A1901E081D08B5101E07ED08C
:102A3000000E8C25E96E050E8D21EA6EEFCFD6F5DE
:102A40000501D6512EE00F0E95168316F00ED61501
:102A50008312D60503E0800ED61502E0839601D0DE
:102A600083868384000E00018C25E96E050E8D217E
:102A7000EA6EEF6A8C2B000E8D23100E8DAF02D004
:102A8000D89003D08C5D000E8D5902E38C6B8D6B5A
:102A90000501146B156B0001606B020E8A6F8B6B66
:102AA00005D00001010E606F8C6B8D6B0A0EE66E17
:102AB00005EC21F0E5523ED00501142B000E152344
:102AC000010E141903E1155101E18394020E15AFB3
:102AD00002D0D89003D0145D000E15592BE3146B6F
:102AE000156B0F0E8316D639F00BF00B831283840F
:102AF000146B156B030E16D00501142B000E152355
:102B0000010E141903E1155101E18394020E15AF72
:102B100002D0D89003D0145D000E15590BE3146B4E
:102B2000156B010E00018A6F8B6B04D0010E8A6F4A
:082B30008B6B8186F28E12000E
:082B3800D8EC1AF0FB0EDBCF14
:102B4000F3FFDB06F35000090AE026EC1BF0FA0E57
:102B500091EC1BF0F3E11E1CF1E1010E01D0000E1F
:102B600007EF1BF0D8EC1AF03B0EE12402E3E1681A
:102B7000E652E16E010EDB6A020EDB6AF90EDBCF74
:102B8000F6FFFA0EDBCFF7FFFB0EDBCFF8FF0800F6
:102B9000F550DF6EDF5002E12BEF1AF0250EDF5CFF
:102BA00002E01EEF1AF0030EDB6A040EDB6A050E6C
:102BB000DB6A060EDB6A070EDB6A40EC1AF02D0EAC
:102BC000DF5C0CE02B0EDF5C09E0200EDF5C06E032
:102BD000230EDF5C03E0300EDF5C1AE1DF50300AC9
:102BE00014E0130A0FE0030A0AE00B0A05E0060AE4
:102BF000E4E1030EDB80E1D7030EDB82DED7030EB8
:102C0000DB84DBD7030EDB86D8D7030EDB88D5D772
:102C10002A0EDF5C1BE13CEC1AF08AEC1AF010E0A3
:102C2000030EDB8008680968130EDBCF0DF0140E6D
:102C3000DBCF0EF00EEC20F0040E06C0DBFF03D05D
:102C4000130E73EC1AF040EC1AF00BD0090EDB6A8D
:102C5000E1EC1AF003E055EC1BF0FAD7090E73EC27
:102C60001AF0030EDBB0DB982E0EDF5C1BE140ECAC
:102C70001AF02A0EDF5C0BE13CEC1AF08AEC1AF039
:102C800003E1130EC5EC1AF040EC1AF00BD0090E5C
:102C9000DB6AE1EC1AF003E055EC1BF0FAD7090E01
:102CA000C5EC1AF0680EDF5C07E140EC1AF0680E24
:102CB000DF5C1DE1030E18D0740EDF5C17E07A0EA6
:102CC000DF5C14E0480EDF5C06E0540EDF5C03E0DE
:102CD0005A0EDF5C02E1020E07D06C0EDF5C03E0EF
:102CE0006A0EDF5C04E1010E18EC1BF0C9DBDF505B
:102CF0006E0A01E17FD31E0A01E192D1200A01E1AF
:102D00008FD13F0A01E149D11A0A01E146D10D0AEA
:102D100001E143D1200A01E140D13A0A01E13DD16C
:102D2000200A01E13AD1260A01E135D10D0A01E17B
:102D300032D11A0A01E1D9D0200A4AE0300A1FE054
:102D4000460A0EE0250A01E083D3D950F90FE96E57
:102D5000FF0EDA20EA6E010EEE5E000EEE5AEE5A1B
:102D600026EC1BF0250EE66E95DB03E11E1C01E14F
:102D700069D322EC1BF001E26BD3DB2A69D3080E86
:102D8000DB6A040EDB50010806E2040EDB04EAEC09
:102D90001AF0DB508BDB080EDB5009E0030EDB5032
:102DA000010B05E172DB01E04DD3080EDB6A64DB49
:102DB000EFCFDFFF9AEC1BF003E11E1C01E142D3D1
:102DC00022EC1BF001E3DB2A60DB01E141D33AD3C3
:102DD000070EDB5002080FE166EC1BF0030E2DEC32
:102DE0001BF00E0EEECFDBFF0F0EEECFDBFF100E53
:102DF000EECFDBFF20D0F70EDBCF20F0F80EDBCFDD
:102E000021F0020E205E000E215AF70E20C0DBFFDB
:102E1000F80E21C0DBFF20C0E9FF21C0EAFF1DEC56
:102E20001BF01F6A0E0E1DC0DBFF0F0E1EC0DBFF66
:102E3000100E1FC0DBFF0E0EDBCFE6FF0F0EDBCF49
:102E4000E6FF100EDBCFE6FF6FEC1FF0E552E55218
:102E5000E552130E07C0DBFF140E08C0DBFF060EA1
:102E6000DB5005E0130E61EC1BF001E26ADB85EC40
:102E70001BF002E2130E37DB48EC1BF006E0040EF9
:102E800061EC1BF002E2050E2EDB030EDBB005D079
:102E9000FCDA01E0D7D2080EDB6A090EDB6A0E0EFF
:102EA000DBCFF6FF0F0EDBCFF7FF100EDBCFF8FF07
:102EB0000800F550DF6EDF5014E08BEC1BF011E2E0
:102EC0009AEC1BF003E11E1C01E1BCD2BBDB01E369
:102ED000DB2A090EDB2AD9500E0FE96E000ECBDB80
:102EE000E7D7D3DA01E1B4D2ADD2C6DA110EEECF14
:102EF000DBFF120EEDCFDBFF110EDBCFE6FF120E74
:102F0000DBCFE6FF61EC1FF0E552E552130EF3CF85
:102F1000DBFF140EF4CFDBFF060EDB5004E0130ED4
:102F2000D0DB01E20EDB85EC1BF002E2130EDBDAF4
:102F3000AFDB05E0040EC5DB02E2050ED4DA030EBA
:102F4000DBB005D0A2DA01E07DD2080EDB6A090E03
:102F5000DB6A110EDBCFE9FF120EDBCFEAFFEFCF0A
:102F6000DFFFDF5014E0D7DB12E2E4DB03E11E1CDD
:102F700001E168D267DB01E3DB2A090EDB2A110ECF
:102F8000DB2ADBCFE9FF120EE8E3DB2AE6D77DDAA6
:102F900001E15ED257D2030EDB8E070EDB0410E197
:102FA00095DB040E5ADB0A0EEECFDBFF0B0EEECFE5
:102FB000DBFF0C0EEECFDBFF0D0EEECFDBFF6CD098
:102FC000070EDB5003082CE1030EDBAE0DD0B2DAA6
:102FD000020E76DAEFCF1DF01E6A1F6A206A1DAE60
:102FE00039D01E681F6835D0F70EDBCF1EF0F80E03
:102FF000DBCF1FF0020E1E5E000E1F5AF70E1EC022
:10300000DBFFF80E1FC0DBFF1EC0E9FF1FC0EAFF99
:10301000EFCF1DF00A0E1DC0DBFF0B0EDB6A38D0B0
:10302000070EDB50020809E1030EDBAE04D059DBCA
:103030001FAE10D00ED055DB0DD0030EDBAE12D07C
:1030400079DA020E3DDAF9DA1F6A206A1EAE02D082
:103050001F682068E2DA0C0E1FC0DBFF0D0E20C0D7
:10306000DBFF1AD0F70EDBCF1FF0F80EDBCF20F01E
:10307000020E1F5E000E205AF70E1FC0DBFFF80E77
:1030800020C0DBFF1FC0E9FF20C0EAFFD6DAC5DAA7
:103090000C0EDB6A0D0EDB6A060EDB5005E1010E3D
:1030A000F36E050EF3CFDBFF150EDB6A160EDB6A3F
:1030B000D950370F1D6E000EDA201E6E390E1DC05E
:1030C000DBFF3A0E1EC0DBFF380EDB6A080EDB6A40
:1030D0000A0EAEDADF50780A12E0200A10E0280A61
:1030E0000CE0200A0AE03F0A06E00D0A02E0200A8E
:1030F00008E1020E05D0080E03D0080EDF26100EE0
:1031000097DA030EDBBE02D0DB92DB94DB50800B40
:1031100024E08ADAD890030EEB50000A08E6000E8D
:10312000EE5C000EEE58000EEE58000EEE5815E262
:1031300013DA0B680C680D680E68D6EC1FF00A0EE7
:1031400002C0DBFF0B0E03C0DBFF0C0E04C0DBFF75
:103150000D0E05C0DBFF2D0E08D0030EDBA202D042
:103160002B0E03D0DBA408D0200EF36E170EF3CF86
:10317000DBFF150EDB2A02D0170EDB6A050EDB50D3
:1031800003E1B7D901E189D0310E1D6E420E1E6EEA
:10319000000E1F6E070EDBCF20F0216A226A236A21
:1031A00020C00BF021C00CF022C00DF023C00EF0A7
:1031B000D3D93BEC20F01D500224F36E1E500320A7
:1031C000F46E1F500420F86EF4CFF7FFF3CFF6FF34
:1031D0000800090EF5CFDBFF580EDF5C0FE1610E32
:1031E000F36E090E7BD90AE3200E1D6E090EDBCFAC
:1031F000E7FF1D50E75E090EE7CFDBFF070EDBCFD1
:103200001DF01E6A1F6A206A0FDA1DC00BF01EC077
:103210000CF01FC00DF020C00EF0EECF06F0EECF88
:1032200007F0EECF08F0EFCF09F03BEC20F009C03B
:10323000EDFF08C0EDFF07C0EDFF06C0EFFF390E40
:10324000DBCFE9FFDB063A0EDBCFEAFF01E2DB066C
:10325000090EDBCFEFFF150EDB2A4BD995E1030EEC
:10326000DBA61DD06F0EDF5C06E1C1D918E3150E99
:10327000DB285BDA14D0780EDF5C09E0580EDF5CE7
:1032800006E0620EDF5C03E0420EDF5C08E1020E46
:10329000F36E160EF3CFDBFF02D0150EDB6A030EC2
:1032A000DB50100B0EE0040EDBCF1DF0050EDB50E3
:1032B000D8801D5406E2060EDB5003E1040EDB50FD
:1032C00034DA95D90AE2050EDBCFE7FF150EDB50A5
:1032D000E75E050EE7CFDBFF02D0050EDB6A040ECA
:1032E000DBCF1DF0160E45D9D8801D5414E2160E02
:1032F000DBCFE6FF150EDBCFE6FF040EDBCFE6FFEC
:10330000050EDB50E552E75CE552D880E754E55204
:10331000D880E7545FD9030EDB50010B0BE1080E98
:10332000DB5008E0B2D801E08DD0080EDB50BED8EB
:10333000080EDB6A170EDB5007E088D9170EF1D9AB
:1033400003E11E1C01E17ED0160EDB5016E07ED993
:10335000300EE66E9FD802E11E1C74E077D9DFCFF5
:10336000E6FF94EC1FF0E552E552E552F4CF1EF073
:103370000001F31C02E11E1C65E0050EDBCF1DF011
:10338000160EDB50D8801D5409E2050EDBCFE7FF97
:10339000160EDB50E75E050EE7CFDBFF300EE66E64
:1033A000050ECBD94FE1390EDB2ADBCFE9FF3A0E10
:1033B00001E3DB2ADBCFEAFF090EEFCFDBFFDB50B7
:1033C0000EE044D9090EADD902E11E1C3BE0390ED6
:1033D000DB2ADBCFE9FF3A0EEDE3DB2AEBD755D84A
:1033E00031E1160EDBCFE6FF080EC3D8E552E72425
:1033F0005DD82ED0070EDB50030A1CE0010A14E052
:10340000030A07E07BD9DBCFEEFF020EDBCFEDFF37
:103410001FD0F5D8226A20AE02D0216822682CD8AD
:10342000BCD822C0EEFF14D0EAD820BE216824D830
:10343000B4D80ED063D9DBCFEFFF0AD07BD905E13A
:103440001E1C03E1F368F46810D0FCD801E3DB2A0A
:1034500079D9C7EF15F0010EDBCF1DF0020EDBCFDF
:103460001EF01DC0F3FF1EC0F4FF3B0EE15C02E244
:10347000E16AE552E16ECBD029D9020E2DEF1BF0A7
:1034800061D90800F550DF6E1200200EE66E080EBE
:103490009DEF1BF094EC1FF0E552E552E552F3CF9F
:1034A0001DF0F4CF1EF00001F31C12001D6E1E6A09
:1034B000D950010F4DD91D50EE261E50ED2212009D
:1034C000215E000E225AF70E21C0DBFFF80E22C04B
:1034D000DBFF21C0E9FF22C0EAFF1200DBCFF4FFCF
:1034E000F350F45C1200DB50E76E040EE7CFDBFF15
:1034F00012000A0EDBCF1DF00B0EDBCF1EF00C0E00
:10350000DBCF1FF00D0EDBCF20F01D501E101F1063
:1035100020101200130EEECFDBFF140EEDCFDBFFF9
:10352000130EDBCF1DF0140EDBCF1EF00001800E5A
:103530001E141200F70EDBCF21F0F80EDBCF22F0C5
:103540001200050EDB50E66ED950130F01D9E5527B
:10355000E750EE6EED6A12000A0EDBCF06F00B0E9E
:10356000DBCF07F00C0EDBCF08F00D0EDBCF09F040
:103570001200DBCFE6FF150EDBCFE6FF050EDB50BA
:10358000E552E724E552E7241200DB50CED8010EC5
:10359000F36E060EF3CFDBFF1200EE50EFCFEAFF23
:1035A000E96E1FC0EEFF20C0EEFF21C0EEFF12004B
:1035B000D9CFE6FFDACFE6FFE1CFD9FFE2CFDAFFDE
:1035C0001200DFCFE6FFE66AB7EC20F0E552E552E5
:1035D000F3501200E76E080EE7CFDBFF1200EECFCC
:1035E0001DF0EECF1EF0EFCF1FF0206A1200050E87
:1035F000DBCF1DF0150EDB50D8801D541200010EDC
:10360000DBCF1FF0020EDBCF20F0216A1200E55263
:10361000E5CFDAFFE7CFD9FF12000A0E1DC0DBFFAE
:103620000B0E1EC0DBFF1200D9500A0FA8EF1BF0D3
:10363000F36E070EF3CFDBFF1200EECF1DF0EFCFDE
:103640001EF01200010EDB2A020E1200FC0EDBCF70
:10365000E6FFFD0EDBCFE6FF12001D5E000E1E5AD8
:10366000F70E1DC0DBFFF80E1EC0DBFF1DC0E9FF1B
:103670001EC0EAFF1200DA20EA6EEF2AEECFF6FF54
:10368000000EEF22EECFF7FFEF22EECFF8FF120091
:10369000040EDBCFE6FF130EDB50E552E75C9ADF4A
:1036A000DB5004DF060EDB501200090EDB500A0D62
:1036B000F350DF24D00FE76E090EE7CFDBFF40EFBA
:1036C0001AF0DB50F36E050E6EEF1AF0F70EDBCF3B
:1036D0001DF0F80EDBCF1EF01200DFCFE6FF4AEF41
:1036E0001AF028DF030EECDEEFEF1AF09CEC15F079
:1036F000E552E552E552E55200091200BDDEEE50FA
:10370000EFCFEAFFE96E010E1200130EDB50F36EED
:10371000040E6EEF1AF0040EDB50F36E090E6EEF1E
:103720001AF0DBCFE6FF4AEF1AF0E76E050EE7CF9F
:10373000DBFF12008BDF6DEF1BF0DBCFE6FF86DFD8
:1037400076EF1BF0D950F90FE96EFF0E3BEF1BF03F
:0A375000E96E000EDA20EA6E1200A6
:06375A00D9CFE6FFE1CF2C
:10376000D9FF020EE126DE68DD6A9298929A3E0E3B
:10377000E66E9CEC20F0E552DFCFE6FFB6D8E552CE
:10378000000EE66EE66AC9D8E552E552000EE66E16
:10379000E66AF0D8E552E552020EE15C02E2E16A27
:1037A000E552E16EE552E7CFD9FF1200D9CFE6FF2F
:1037B000E1CFD9FF020EE126FD0EDBCF1DF0FE0E9C
:1037C000DBCF1EF00001800E1E1412E008680968AD
:1037D000FD0EDBCF0DF0FE0EDBCF0EF00EEC20F079
:1037E000FD0E06C0DBFFFE0E07C0DBFF898A01D09D
:1037F000899AFD0EDBCF1DF0FE0EDBCF1EF01E34CE
:103800000CE21D50FF08030E1E5407E2FD0EDB689C
:10381000030EF36EFE0EF3CFDBFFFD0EDBCFDEFFFC
:10382000DBCFDDFFDECFE6FFDDCFE6FF76D8E5526A
:10383000E552020EE15C02E2E16AE552E16EE55218
:10384000E7CFD9FF1200D9CFE6FFE1CFD9FF020EB3
:10385000E126FD0EDBCF1DF0FE0EDBCF1EF00001DA
:10386000800E1E1412E008680968FD0EDBCF0DF013
:10387000FE0EDBCF0EF00EEC20F0FD0E06C0DBFFDF
:10388000FE0E07C0DBFF898801D08998FD0EDBCFD3
:103890001DF0FE0EDBCF1EF01E340CE21D50FF08A3
:1038A000030E1E5407E2FD0EDB68030EF36EFE0EE0
:1038B000F3CFDBFFFD0EDBCFDEFFDBCFDDFFDECFA7
:1038C000E6FFDDCFE6FF56D8E552E552020EE15C99
:1038D00002E2E16AE552E16EE552E7CFD9FF12005C
:1038E00021EC21F014D88AEF1CF0D9CFE6FFE1CF0C
:1038F000D9FF0C0EBD6EBA6ECA94FE0EDB50CB6EB5
:1039000094949492CA84E552E7CFD9FF1200BD6A1D
:1039100094841200BA6A94821200D9CFE6FFE1CFF4
:10392000D9FF020EE126FD0EDBCF1DF0FE0EDBCF30
:103930001EF0060ED8901D361E36E804FBE11DC0B1
:10394000DEFF1EC0DDFF010EDB50BE6EDF50E84023
:10395000E8403F0B300B1D6ECF0EBD141D10BD6E29
:10396000020EE15C02E2E16AE552E16EE552E7CF68
:10397000D9FF1200D9CFE6FFE1CFD9FF020EE12631
:10398000FD0EDBCF1DF0FE0EDBCF1EF0060ED89035
:103990001D361E36E804FBE11DC0DEFF1EC0DDFF44
:1039A000010EDB50BB6EDF50E840E8403F0B300BB0
:1039B0001D6ECF0EBA141D10BA6E020EE15C02E24B
:0E39C000E16AE552E16EE552E7CFD9FF120051
:0239CE000F0EDA
:1039D000951683169596959483968394D3D8D2D8CA
:1039E0000F0E95168316300E8312AAD80F0E83166B
:1039F000300E8312A5D80F0E8316300E8312A0D876
:103A00000F0E8316838A9CD8C3D8090EE66E66D83B
:103A1000E552BED8010EE66E61D8E552020EE66EA2
:103A20005DD8E552B5D8800EE66E58D8E552B0D8CC
:103A3000080EE66E53D8E552ABD80F0EE66E4ED8A0
:103A4000E552130EE66E4AD8E552E66A7FD8E55293
:103A5000C8EF1DF0D9CFE6FFE1CFD9FFFD0EDBCFD8
:103A6000E9FFFE0EDBCFEAFFEF5011E091D8FD0E2B
:103A7000DBCFE9FFFE0EDBCFEAFFEF50E66E47D863
:103A8000E552FD0EDB2AFE0EE9E3DB2AE7D7E5521D
:103A9000E7CFD9FF1200D9CFE6FFE1CFD9FFFD0E66
:103AA000DBCFF6FFFE0EDBCFF7FF0800F55012E08C
:103AB0006FD8FD0EDBCFF6FFFE0EDBCFF7FF080061
:103AC000F550E66E24D8E552FD0EDB2AFE0EE7E344
:103AD000DB2AE5D7E552E7CFD9FF1200D9CFE6FFC1
:103AE000E1CFD9FF0F0E95168316FE0EDB50F00BBB
:103AF0008312839625D80F0E8316FE0EDB38F00B4B
:103B0000F00B83121DD8E552E7CFD9FF1200D9CFB1
:103B1000E6FFE1CFD9FF0F0E95168316FE0EDB50A0
:103B2000F00B831283860CD80F0E8316FE0EDB3843
:103B3000F00BF00B831204D8E552E7CFD9FF120047
:103B400083842CD82BD88394C8EF1DF0D9CFE6FFFF
:103B5000E1CFD9FF0F0E95168316FE0EDB508009BC
:103B6000F00B831283961AD8EBDF0F0E8316FE0E2E
:103B7000DB38F00BF00B831211D8E2DFE552E7CF10
:103B8000D9FF1200960EE66EC9EC20F0E552120045
:103B9000190EE66EC9EC20F0E5521200000000009C
:103BA0000000000000000000000000000000000015
:063BB000000000001200FD
:0A3BB600040120511F0B010801E07B
:103BC0001200245101E01200060E215D1EE1235176
:103BD000230A1BE0010A0CE0030A17E10001960525
:103BE00014E10001A20EA66F3C0EA76F090E09D0CA
:103BF000000196050AE100011F0EA66F3D0EA76F9A
:103C00001C0EA96FAA6BC00EA86F04012051600B97
:103C1000E842E842E842E842E842010801E01200D6
:103C200021510B0A26E0080A19E0090A11E0080AE6
:103C300005E00B0A23E0080A21E012000001CD0E86
:103C4000A66F000EA76F010EA96FAA6BC10E0FD051
:103C50000001800EA86F23C4CDF012000001CE0E2B
:103C6000A66F000EA76F010EA96FAA6B810EA86F39
:0E3C700012000001800EA86F22C4CEF01200D8
:023C7E00120131
:103C8000000200000008D8043F0002000102000109
:103C900009022900010100C03209040000020300EA
:103CA0000000092111010001221C000705810340C9
:103CB0000001070501034000010403090434034D1A
:103CC000006900630072006F0063006800690070A3
:103CD00000200054006500630068006E006F006CF7
:103CE000006F0067007900200049006E0063002E1D
:103CF000002E03530069006D0070006C0065002009
:103D00000048004900440020004400650076006936
:103D100000630065002000440065006D006F000630
:103D200000FF0901A101190129401501254075086D
:103D300095408100190129409100C0903CB93CBDDB
:033D40003CF13C17
:0C3D4400D9CFE6FFDACFE6FFE1CFD9FFD0
:103D5000E2CFDAFFE652E652E652E652D950F90FC8
:103D60001D6EFF0EDA201E6E020E1DC0DBFF030E5D
:103D70001EC0DBFF020EDBCFE6FF030EDBCFE6FF4C
:103D8000F90EDBCFE6FFFA0EDBCFE6FFFB0EDBCF53
:103D9000E6FFD950FC0FE66EFF0EDA20E66EB2ECBD
:103DA00015F01D6E070EE15C02E2E16AE552E16E7C
:103DB0001D50F3CFDEFFF4CFDDFFFC0EDBCFE9FFBC
:103DC000FD0EDBCFEAFFEF6ADECF1DF0DDCF1EF088
:103DD0001DC0F3FF1EC0F4FF040EE15C02E2E16AC5
:103DE000E552E16EE552E5CFDAFFE7CFD9FF1200E9
:103DF0002A0EF66E080EF76E000EF86E000109002E
:103E0000F550C86F0900F550C96F03E1C86701D0CC
:103E10003DD00900F550C36F0900F550C46F09008B
:103E2000F550C56F09000900F550E96E0900F5501D
:103E3000EA6E090009000900F550C66F0900F55047
:103E4000C76F09000900F6CFCAF0F7CFCBF0F8CF63
:103E5000CCF0C3C0F6FFC4C0F7FFC5C0F8FF000137
:103E6000C65302E1C75307E00900F550EE6EC607DE
:103E7000F8E2C707F9D7CAC0F6FFCBC0F7FFCCC03E
:0E3E8000F8FF0001C807000EC95BBFD7120093
:023E8E00FE0E26
:103E9000E3CFE9FFFF0EE3CFEAFFE9CFF3FFEACF7D
:103EA000F4FFFB0EE35003E1FC0EE35009E0FB0ED0
:103EB000E30602E2FC0EE306FD0EE350EE6EF1D7E0
:103EC0001200FE0EE3CFE9FFFF0EE3CFEAFFF36A35
:103ED000F46AEE5203E0F34AF42AFBD71200FF0E15
:103EE000E3CFF8FFE552FF0EE3CFF7FFE552FF0EF9
:103EF000E3CFF6FFE552E66AE66AE66A0900F552A4
:103F000009E0FD0EE32A05E1FE0EE32A02E1FF0EC1
:103F1000E32AF4D7FD0EE3CF07F0FE0EE3CF08F05F
:083F2000FF0EE3CF09F01200CF
:083F2800D9CFE6FFDACFE6FF76
:103F3000E1CFD9FFE2CFDAFFFB0EDBCF1DF0FC0EA5
:103F4000DBCF1EF00001800E1E141AE1FB0EDBCF4A
:103F5000E9FFFC0EDBCFEAFFEECFF3FFEDCFF4FF7E
:103F6000EE2A000EEF22F3CFE9FFF4CFEAFFFD0EB9
:103F7000DBCFEFFFEF501E6AF36E1EC0F4FF10D0D0
:103F8000FB0EDB50FE0806E1FD0EDBCFE6FFF7EC93
:103F900020F005D0FD0EDBCFE6FF24EC21F0E5524A
:0C3FA000E552E5CFDAFFE7CFD9FF1200B1
:043FAC0006500B02AE
:103FB000F3CF02F0F4CF03F00C02F3500326000E0F
:103FC000F420046E06500D02F3500426000EF42077
:103FD000056E06500E02F350052607500B02F350F3
:103FE0000326F4500422000E052207500C02F35061
:103FF0000426F450052207500D02F3500526085000
:104000000B02F3500426F450052208500C02F35022
:0C401000052609500B02F3500526120093
:04401C0009C013F0D4
:1040200008C012F008500D02F4CF07F0F3CF06F0ED
:1040300009500E02F4CF09F0F3CF08F00D02F3504F
:104040000726F4500822E86A092212500E02F350A3
:104050000726F4500822E86A09220EAE34EF20F059
:104060001250085E1350095A13AE000C0D50085E32
:064070000E50095A000C7D
:0A407600056A046A036A026A200E5C
:10408000E76ED8900636073608360936023603360C
:10409000043605360B50025C0C5003580D50045882
:1040A0000E50055809E30B50025E0C50035A0D5098
:0E40B000045A0E50055A062AE72EE4D71200D5
:0240BE00D9CF58
:1040C000E6FFDACFE6FFE1CFD9FFE2CFDAFFFD0E60
:1040D000DB507E0BCD6EFD0EDBAC02D0CD8E01D061
:1040E000CD9ECF6ACE6A9E90DBAE02D09D8001D07D
:1040F0009D90CD80E552E5CFDAFFE7CFD9FF1200E2
:10410000D9CFE6FFDACFE6FFE1CFD9FFE2CFDAFF82
:10411000E652E652FC0EDBCFDEFFDBCFDDFF010E09
:10412000DB50CF6EDF50CE6EE552E552E552E5CF63
:08413000DAFFE7CFD9FF12000E
:08413800D9CFE6FFDACFE6FF64
:10414000E1CFD9FFE2CFDAFFFD0EDB50FB0BCA6EE9
:10415000CC6A9E92FD0EDBAE02D09D8201D09D9274
:0E416000CA84E552E5CFDAFFE7CFD9FF12009F
:02416E00F36AF2
:10417000F46AFF0EE124E96EFF0EE220EA6EED66BE
:1041800007D02F0EEF6404D03A0EEF6001D0F32A6F
:0241900012001B
:0E419200FF0EE350246E480E01D04C0EE76E77
:1041A000E72EFED7E76AE72EFED7242EF7D70000CA
:0241B0001200FB
:0E41B200000EF36E00EE00F0040E01D81200B5
:1041C000EA6002D0EE6AFCD7F350E9601200EE6AB2
:0241D000FCD71A
:0E41D20013EE00F023EE00F0F86A019CF8EC0A
:0E41E0001EF025EC21F009EC10F0FBD71200C8
:0241EE00FF0EC2
:1041F000E350ACBA04D0AF6AAB8EAC8A949CACA24C
:0A420000FED7AD6EF36EF46A1200F3
:06420A00FF0EE350E84E38
:104210001200000000D000D000D0E82EFAD7120023
:104220007375426F61726420484944204C69622E64
:01423000008D
:0F42310030313233343536373839616263646582
:02424000660016
:06424200CA949D921200D7
:02424800120062
:02424A00120060
:04424C00010000006D
:104250000000000000800F810F820F830F840F92F7
:104260000F930F940F950F960F00000100000102AD
:104270000408102040800100000000000000010040
:01428000003D
:00000001FF
